{
  "_format": "hh-sol-artifact-1",
  "contractName": "MyERC721",
  "sourceName": "contracts/MyERC721.sol",
  "abi": [
    {
      "inputs": [],
      "stateMutability": "nonpayable",
      "type": "constructor"
    },
    {
      "anonymous": false,
      "inputs": [
        {
          "indexed": true,
          "internalType": "address",
          "name": "owner",
          "type": "address"
        },
        {
          "indexed": true,
          "internalType": "address",
          "name": "approved",
          "type": "address"
        },
        {
          "indexed": true,
          "internalType": "uint256",
          "name": "tokenId",
          "type": "uint256"
        }
      ],
      "name": "Approval",
      "type": "event"
    },
    {
      "anonymous": false,
      "inputs": [
        {
          "indexed": true,
          "internalType": "address",
          "name": "owner",
          "type": "address"
        },
        {
          "indexed": true,
          "internalType": "address",
          "name": "operator",
          "type": "address"
        },
        {
          "indexed": false,
          "internalType": "bool",
          "name": "approved",
          "type": "bool"
        }
      ],
      "name": "ApprovalForAll",
      "type": "event"
    },
    {
      "anonymous": false,
      "inputs": [
        {
          "indexed": true,
          "internalType": "address",
          "name": "from",
          "type": "address"
        },
        {
          "indexed": true,
          "internalType": "address",
          "name": "to",
          "type": "address"
        },
        {
          "indexed": true,
          "internalType": "uint256",
          "name": "tokenId",
          "type": "uint256"
        }
      ],
      "name": "Transfer",
      "type": "event"
    },
    {
      "inputs": [
        {
          "internalType": "address",
          "name": "to",
          "type": "address"
        },
        {
          "internalType": "uint256",
          "name": "tokenId",
          "type": "uint256"
        }
      ],
      "name": "approve",
      "outputs": [],
      "stateMutability": "nonpayable",
      "type": "function"
    },
    {
      "inputs": [
        {
          "internalType": "address",
          "name": "owner",
          "type": "address"
        }
      ],
      "name": "balanceOf",
      "outputs": [
        {
          "internalType": "uint256",
          "name": "",
          "type": "uint256"
        }
      ],
      "stateMutability": "view",
      "type": "function"
    },
    {
      "inputs": [
        {
          "internalType": "uint256",
          "name": "tokenId",
          "type": "uint256"
        }
      ],
      "name": "getApproved",
      "outputs": [
        {
          "internalType": "address",
          "name": "",
          "type": "address"
        }
      ],
      "stateMutability": "view",
      "type": "function"
    },
    {
      "inputs": [
        {
          "internalType": "address",
          "name": "owner",
          "type": "address"
        },
        {
          "internalType": "address",
          "name": "operator",
          "type": "address"
        }
      ],
      "name": "isApprovedForAll",
      "outputs": [
        {
          "internalType": "bool",
          "name": "",
          "type": "bool"
        }
      ],
      "stateMutability": "view",
      "type": "function"
    },
    {
      "inputs": [
        {
          "internalType": "address",
          "name": "owner",
          "type": "address"
        },
        {
          "internalType": "string",
          "name": "tokenURI",
          "type": "string"
        }
      ],
      "name": "mint",
      "outputs": [
        {
          "internalType": "uint256",
          "name": "",
          "type": "uint256"
        }
      ],
      "stateMutability": "nonpayable",
      "type": "function"
    },
    {
      "inputs": [],
      "name": "name",
      "outputs": [
        {
          "internalType": "string",
          "name": "",
          "type": "string"
        }
      ],
      "stateMutability": "view",
      "type": "function"
    },
    {
      "inputs": [
        {
          "internalType": "uint256",
          "name": "tokenId",
          "type": "uint256"
        }
      ],
      "name": "ownerOf",
      "outputs": [
        {
          "internalType": "address",
          "name": "",
          "type": "address"
        }
      ],
      "stateMutability": "view",
      "type": "function"
    },
    {
      "inputs": [
        {
          "internalType": "address",
          "name": "from",
          "type": "address"
        },
        {
          "internalType": "address",
          "name": "to",
          "type": "address"
        },
        {
          "internalType": "uint256",
          "name": "tokenId",
          "type": "uint256"
        }
      ],
      "name": "safeTransferFrom",
      "outputs": [],
      "stateMutability": "nonpayable",
      "type": "function"
    },
    {
      "inputs": [
        {
          "internalType": "address",
          "name": "from",
          "type": "address"
        },
        {
          "internalType": "address",
          "name": "to",
          "type": "address"
        },
        {
          "internalType": "uint256",
          "name": "tokenId",
          "type": "uint256"
        },
        {
          "internalType": "bytes",
          "name": "data",
          "type": "bytes"
        }
      ],
      "name": "safeTransferFrom",
      "outputs": [],
      "stateMutability": "nonpayable",
      "type": "function"
    },
    {
      "inputs": [
        {
          "internalType": "address",
          "name": "operator",
          "type": "address"
        },
        {
          "internalType": "bool",
          "name": "approved",
          "type": "bool"
        }
      ],
      "name": "setApprovalForAll",
      "outputs": [],
      "stateMutability": "nonpayable",
      "type": "function"
    },
    {
      "inputs": [
        {
          "internalType": "bytes4",
          "name": "interfaceId",
          "type": "bytes4"
        }
      ],
      "name": "supportsInterface",
      "outputs": [
        {
          "internalType": "bool",
          "name": "",
          "type": "bool"
        }
      ],
      "stateMutability": "view",
      "type": "function"
    },
    {
      "inputs": [],
      "name": "symbol",
      "outputs": [
        {
          "internalType": "string",
          "name": "",
          "type": "string"
        }
      ],
      "stateMutability": "view",
      "type": "function"
    },
    {
      "inputs": [
        {
          "internalType": "uint256",
          "name": "tokenId",
          "type": "uint256"
        }
      ],
      "name": "tokenURI",
      "outputs": [
        {
          "internalType": "string",
          "name": "",
          "type": "string"
        }
      ],
      "stateMutability": "view",
      "type": "function"
    },
    {
      "inputs": [
        {
          "internalType": "address",
          "name": "from",
          "type": "address"
        },
        {
          "internalType": "address",
          "name": "to",
          "type": "address"
        },
        {
          "internalType": "uint256",
          "name": "tokenId",
          "type": "uint256"
        }
      ],
      "name": "transferFrom",
      "outputs": [],
      "stateMutability": "nonpayable",
      "type": "function"
    }
  ],
  "bytecode": "0x60806040523480156200001157600080fd5b506040518060400160405280600681526020017f676f6e6c756100000000000000000000000000000000000000000000000000008152506040518060400160405280600681526020017f676f6e6c7561000000000000000000000000000000000000000000000000000081525081600090816200008f919062000324565b508060019081620000a1919062000324565b5050506200040b565b600081519050919050565b7f4e487b7100000000000000000000000000000000000000000000000000000000600052604160045260246000fd5b7f4e487b7100000000000000000000000000000000000000000000000000000000600052602260045260246000fd5b600060028204905060018216806200012c57607f821691505b602082108103620001425762000141620000e4565b5b50919050565b60008190508160005260206000209050919050565b60006020601f8301049050919050565b600082821b905092915050565b600060088302620001ac7fffffffffffffffffffffffffffffffffffffffffffffffffffffffffffffffff826200016d565b620001b886836200016d565b95508019841693508086168417925050509392505050565b6000819050919050565b6000819050919050565b600062000205620001ff620001f984620001d0565b620001da565b620001d0565b9050919050565b6000819050919050565b6200022183620001e4565b6200023962000230826200020c565b8484546200017a565b825550505050565b600090565b6200025062000241565b6200025d81848462000216565b505050565b5b8181101562000285576200027960008262000246565b60018101905062000263565b5050565b601f821115620002d4576200029e8162000148565b620002a9846200015d565b81016020851015620002b9578190505b620002d1620002c8856200015d565b83018262000262565b50505b505050565b600082821c905092915050565b6000620002f960001984600802620002d9565b1980831691505092915050565b6000620003148383620002e6565b9150826002028217905092915050565b6200032f82620000aa565b67ffffffffffffffff8111156200034b576200034a620000b5565b5b62000357825462000113565b6200036482828562000289565b600060209050601f8311600181146200039c576000841562000387578287015190505b62000393858262000306565b86555062000403565b601f198416620003ac8662000148565b60005b82811015620003d657848901518255600182019150602085019450602081019050620003af565b86831015620003f65784890151620003f2601f891682620002e6565b8355505b6001600288020188555050505b505050505050565b612aa0806200041b6000396000f3fe608060405234801561001057600080fd5b50600436106100ea5760003560e01c806370a082311161008c578063b88d4fde11610066578063b88d4fde1461025b578063c87b56dd14610277578063d0def521146102a7578063e985e9c5146102d7576100ea565b806370a08231146101f157806395d89b4114610221578063a22cb4651461023f576100ea565b8063095ea7b3116100c8578063095ea7b31461016d57806323b872dd1461018957806342842e0e146101a55780636352211e146101c1576100ea565b806301ffc9a7146100ef57806306fdde031461011f578063081812fc1461013d575b600080fd5b61010960048036038101906101049190611918565b610307565b6040516101169190611960565b60405180910390f35b6101276103e9565b6040516101349190611a0b565b60405180910390f35b61015760048036038101906101529190611a63565b61047b565b6040516101649190611ad1565b60405180910390f35b61018760048036038101906101829190611b18565b6104c1565b005b6101a3600480360381019061019e9190611b58565b6105d8565b005b6101bf60048036038101906101ba9190611b58565b610638565b005b6101db60048036038101906101d69190611a63565b610658565b6040516101e89190611ad1565b60405180910390f35b61020b60048036038101906102069190611bab565b6106de565b6040516102189190611be7565b60405180910390f35b610229610795565b6040516102369190611a0b565b60405180910390f35b61025960048036038101906102549190611c2e565b610827565b005b61027560048036038101906102709190611da3565b61083d565b005b610291600480360381019061028c9190611a63565b61089f565b60405161029e9190611a0b565b60405180910390f35b6102c160048036038101906102bc9190611ec7565b6109b1565b6040516102ce9190611be7565b60405180910390f35b6102f160048036038101906102ec9190611f23565b6109ee565b6040516102fe9190611960565b60405180910390f35b60007f80ac58cd000000000000000000000000000000000000000000000000000000007bffffffffffffffffffffffffffffffffffffffffffffffffffffffff1916827bffffffffffffffffffffffffffffffffffffffffffffffffffffffff191614806103d257507f5b5e139f000000000000000000000000000000000000000000000000000000007bffffffffffffffffffffffffffffffffffffffffffffffffffffffff1916827bffffffffffffffffffffffffffffffffffffffffffffffffffffffff1916145b806103e257506103e182610a82565b5b9050919050565b6060600080546103f890611f92565b80601f016020809104026020016040519081016040528092919081815260200182805461042490611f92565b80156104715780601f1061044657610100808354040283529160200191610471565b820191906000526020600020905b81548152906001019060200180831161045457829003601f168201915b5050505050905090565b600061048682610aec565b6004600083815260200190815260200160002060009054906101000a900473ffffffffffffffffffffffffffffffffffffffff169050919050565b60006104cc82610658565b90508073ffffffffffffffffffffffffffffffffffffffff168373ffffffffffffffffffffffffffffffffffffffff160361053c576040517f08c379a000000000000000000000000000000000000000000000000000000000815260040161053390612035565b60405180910390fd5b8073ffffffffffffffffffffffffffffffffffffffff1661055b610b37565b73ffffffffffffffffffffffffffffffffffffffff16148061058a575061058981610584610b37565b6109ee565b5b6105c9576040517f08c379a00000000000000000000000000000000000000000000000000000000081526004016105c0906120c7565b60405180910390fd5b6105d38383610b3f565b505050565b6105e96105e3610b37565b82610bf8565b610628576040517f08c379a000000000000000000000000000000000000000000000000000000000815260040161061f90612159565b60405180910390fd5b610633838383610c8d565b505050565b6106538383836040518060200160405280600081525061083d565b505050565b60008061066483610f86565b9050600073ffffffffffffffffffffffffffffffffffffffff168173ffffffffffffffffffffffffffffffffffffffff16036106d5576040517f08c379a00000000000000000000000000000000000000000000000000000000081526004016106cc906121c5565b60405180910390fd5b80915050919050565b60008073ffffffffffffffffffffffffffffffffffffffff168273ffffffffffffffffffffffffffffffffffffffff160361074e576040517f08c379a000000000000000000000000000000000000000000000000000000000815260040161074590612257565b60405180910390fd5b600360008373ffffffffffffffffffffffffffffffffffffffff1673ffffffffffffffffffffffffffffffffffffffff168152602001908152602001600020549050919050565b6060600180546107a490611f92565b80601f01602080910402602001604051908101604052809291908181526020018280546107d090611f92565b801561081d5780601f106107f25761010080835404028352916020019161081d565b820191906000526020600020905b81548152906001019060200180831161080057829003601f168201915b5050505050905090565b610839610832610b37565b8383610fc3565b5050565b61084e610848610b37565b83610bf8565b61088d576040517f08c379a000000000000000000000000000000000000000000000000000000000815260040161088490612159565b60405180910390fd5b6108998484848461112f565b50505050565b60606108aa82610aec565b60006006600084815260200190815260200160002080546108ca90611f92565b80601f01602080910402602001604051908101604052809291908181526020018280546108f690611f92565b80156109435780601f1061091857610100808354040283529160200191610943565b820191906000526020600020905b81548152906001019060200180831161092657829003601f168201915b50505050509050600061095461118b565b905060008151036109695781925050506109ac565b60008251111561099e5780826040516020016109869291906122b3565b604051602081830303815290604052925050506109ac565b6109a7846111a2565b925050505b919050565b6000600760008154809291906109c690612306565b91905055506109d78360075461120a565b6109e360075483611427565b600754905092915050565b6000600560008473ffffffffffffffffffffffffffffffffffffffff1673ffffffffffffffffffffffffffffffffffffffff16815260200190815260200160002060008373ffffffffffffffffffffffffffffffffffffffff1673ffffffffffffffffffffffffffffffffffffffff16815260200190815260200160002060009054906101000a900460ff16905092915050565b60007f01ffc9a7000000000000000000000000000000000000000000000000000000007bffffffffffffffffffffffffffffffffffffffffffffffffffffffff1916827bffffffffffffffffffffffffffffffffffffffffffffffffffffffff1916149050919050565b610af581611494565b610b34576040517f08c379a0000000000000000000000000000000000000000000000000000000008152600401610b2b906121c5565b60405180910390fd5b50565b600033905090565b816004600083815260200190815260200160002060006101000a81548173ffffffffffffffffffffffffffffffffffffffff021916908373ffffffffffffffffffffffffffffffffffffffff160217905550808273ffffffffffffffffffffffffffffffffffffffff16610bb283610658565b73ffffffffffffffffffffffffffffffffffffffff167f8c5be1e5ebec7d5bd14f71427d1e84f3dd0314c0f7b2291e5b200ac8c7c3b92560405160405180910390a45050565b600080610c0483610658565b90508073ffffffffffffffffffffffffffffffffffffffff168473ffffffffffffffffffffffffffffffffffffffff161480610c465750610c4581856109ee565b5b80610c8457508373ffffffffffffffffffffffffffffffffffffffff16610c6c8461047b565b73ffffffffffffffffffffffffffffffffffffffff16145b91505092915050565b8273ffffffffffffffffffffffffffffffffffffffff16610cad82610658565b73ffffffffffffffffffffffffffffffffffffffff1614610d03576040517f08c379a0000000000000000000000000000000000000000000000000000000008152600401610cfa906123c0565b60405180910390fd5b600073ffffffffffffffffffffffffffffffffffffffff168273ffffffffffffffffffffffffffffffffffffffff1603610d72576040517f08c379a0000000000000000000000000000000000000000000000000000000008152600401610d6990612452565b60405180910390fd5b610d7f83838360016114d5565b8273ffffffffffffffffffffffffffffffffffffffff16610d9f82610658565b73ffffffffffffffffffffffffffffffffffffffff1614610df5576040517f08c379a0000000000000000000000000000000000000000000000000000000008152600401610dec906123c0565b60405180910390fd5b6004600082815260200190815260200160002060006101000a81549073ffffffffffffffffffffffffffffffffffffffff02191690556001600360008573ffffffffffffffffffffffffffffffffffffffff1673ffffffffffffffffffffffffffffffffffffffff168152602001908152602001600020600082825403925050819055506001600360008473ffffffffffffffffffffffffffffffffffffffff1673ffffffffffffffffffffffffffffffffffffffff16815260200190815260200160002060008282540192505081905550816002600083815260200190815260200160002060006101000a81548173ffffffffffffffffffffffffffffffffffffffff021916908373ffffffffffffffffffffffffffffffffffffffff160217905550808273ffffffffffffffffffffffffffffffffffffffff168473ffffffffffffffffffffffffffffffffffffffff167fddf252ad1be2c89b69c2b068fc378daa952ba7f163c4a11628f55a4df523b3ef60405160405180910390a4610f8183838360016114db565b505050565b60006002600083815260200190815260200160002060009054906101000a900473ffffffffffffffffffffffffffffffffffffffff169050919050565b8173ffffffffffffffffffffffffffffffffffffffff168373ffffffffffffffffffffffffffffffffffffffff1603611031576040517f08c379a0000000000000000000000000000000000000000000000000000000008152600401611028906124be565b60405180910390fd5b80600560008573ffffffffffffffffffffffffffffffffffffffff1673ffffffffffffffffffffffffffffffffffffffff16815260200190815260200160002060008473ffffffffffffffffffffffffffffffffffffffff1673ffffffffffffffffffffffffffffffffffffffff16815260200190815260200160002060006101000a81548160ff0219169083151502179055508173ffffffffffffffffffffffffffffffffffffffff168373ffffffffffffffffffffffffffffffffffffffff167f17307eab39ab6107e8899845ad3d59bd9653f200f220920489ca2b5937696c31836040516111229190611960565b60405180910390a3505050565b61113a848484610c8d565b611146848484846114e1565b611185576040517f08c379a000000000000000000000000000000000000000000000000000000000815260040161117c90612550565b60405180910390fd5b50505050565b606060405180602001604052806000815250905090565b60606111ad82610aec565b60006111b761118b565b905060008151116111d75760405180602001604052806000815250611202565b806111e184611668565b6040516020016111f29291906122b3565b6040516020818303038152906040525b915050919050565b600073ffffffffffffffffffffffffffffffffffffffff168273ffffffffffffffffffffffffffffffffffffffff1603611279576040517f08c379a0000000000000000000000000000000000000000000000000000000008152600401611270906125bc565b60405180910390fd5b61128281611494565b156112c2576040517f08c379a00000000000000000000000000000000000000000000000000000000081526004016112b990612628565b60405180910390fd5b6112d06000838360016114d5565b6112d981611494565b15611319576040517f08c379a000000000000000000000000000000000000000000000000000000000815260040161131090612628565b60405180910390fd5b6001600360008473ffffffffffffffffffffffffffffffffffffffff1673ffffffffffffffffffffffffffffffffffffffff16815260200190815260200160002060008282540192505081905550816002600083815260200190815260200160002060006101000a81548173ffffffffffffffffffffffffffffffffffffffff021916908373ffffffffffffffffffffffffffffffffffffffff160217905550808273ffffffffffffffffffffffffffffffffffffffff16600073ffffffffffffffffffffffffffffffffffffffff167fddf252ad1be2c89b69c2b068fc378daa952ba7f163c4a11628f55a4df523b3ef60405160405180910390a46114236000838360016114db565b5050565b61143082611494565b61146f576040517f08c379a0000000000000000000000000000000000000000000000000000000008152600401611466906126ba565b60405180910390fd5b8060066000848152602001908152602001600020908161148f9190612886565b505050565b60008073ffffffffffffffffffffffffffffffffffffffff166114b683610f86565b73ffffffffffffffffffffffffffffffffffffffff1614159050919050565b50505050565b50505050565b60006115028473ffffffffffffffffffffffffffffffffffffffff16611736565b1561165b578373ffffffffffffffffffffffffffffffffffffffff1663150b7a0261152b610b37565b8786866040518563ffffffff1660e01b815260040161154d94939291906129ad565b6020604051808303816000875af192505050801561158957506040513d601f19601f820116820180604052508101906115869190612a0e565b60015b61160b573d80600081146115b9576040519150601f19603f3d011682016040523d82523d6000602084013e6115be565b606091505b506000815103611603576040517f08c379a00000000000000000000000000000000000000000000000000000000081526004016115fa90612550565b60405180910390fd5b805181602001fd5b63150b7a0260e01b7bffffffffffffffffffffffffffffffffffffffffffffffffffffffff1916817bffffffffffffffffffffffffffffffffffffffffffffffffffffffff191614915050611660565b600190505b949350505050565b60606000600161167784611759565b01905060008167ffffffffffffffff81111561169657611695611c78565b5b6040519080825280601f01601f1916602001820160405280156116c85781602001600182028036833780820191505090505b509050600082602001820190505b60011561172b578080600190039150507f3031323334353637383961626364656600000000000000000000000000000000600a86061a8153600a858161171f5761171e612a3b565b5b049450600085036116d6575b819350505050919050565b6000808273ffffffffffffffffffffffffffffffffffffffff163b119050919050565b600080600090507a184f03e93ff9f4daa797ed6e38ed64bf6a1f01000000000000000083106117b7577a184f03e93ff9f4daa797ed6e38ed64bf6a1f01000000000000000083816117ad576117ac612a3b565b5b0492506040810190505b6d04ee2d6d415b85acef810000000083106117f4576d04ee2d6d415b85acef810000000083816117ea576117e9612a3b565b5b0492506020810190505b662386f26fc10000831061182357662386f26fc10000838161181957611818612a3b565b5b0492506010810190505b6305f5e100831061184c576305f5e100838161184257611841612a3b565b5b0492506008810190505b612710831061187157612710838161186757611866612a3b565b5b0492506004810190505b60648310611894576064838161188a57611889612a3b565b5b0492506002810190505b600a83106118a3576001810190505b80915050919050565b6000604051905090565b600080fd5b600080fd5b60007fffffffff0000000000000000000000000000000000000000000000000000000082169050919050565b6118f5816118c0565b811461190057600080fd5b50565b600081359050611912816118ec565b92915050565b60006020828403121561192e5761192d6118b6565b5b600061193c84828501611903565b91505092915050565b60008115159050919050565b61195a81611945565b82525050565b60006020820190506119756000830184611951565b92915050565b600081519050919050565b600082825260208201905092915050565b60005b838110156119b557808201518184015260208101905061199a565b60008484015250505050565b6000601f19601f8301169050919050565b60006119dd8261197b565b6119e78185611986565b93506119f7818560208601611997565b611a00816119c1565b840191505092915050565b60006020820190508181036000830152611a2581846119d2565b905092915050565b6000819050919050565b611a4081611a2d565b8114611a4b57600080fd5b50565b600081359050611a5d81611a37565b92915050565b600060208284031215611a7957611a786118b6565b5b6000611a8784828501611a4e565b91505092915050565b600073ffffffffffffffffffffffffffffffffffffffff82169050919050565b6000611abb82611a90565b9050919050565b611acb81611ab0565b82525050565b6000602082019050611ae66000830184611ac2565b92915050565b611af581611ab0565b8114611b0057600080fd5b50565b600081359050611b1281611aec565b92915050565b60008060408385031215611b2f57611b2e6118b6565b5b6000611b3d85828601611b03565b9250506020611b4e85828601611a4e565b9150509250929050565b600080600060608486031215611b7157611b706118b6565b5b6000611b7f86828701611b03565b9350506020611b9086828701611b03565b9250506040611ba186828701611a4e565b9150509250925092565b600060208284031215611bc157611bc06118b6565b5b6000611bcf84828501611b03565b91505092915050565b611be181611a2d565b82525050565b6000602082019050611bfc6000830184611bd8565b92915050565b611c0b81611945565b8114611c1657600080fd5b50565b600081359050611c2881611c02565b92915050565b60008060408385031215611c4557611c446118b6565b5b6000611c5385828601611b03565b9250506020611c6485828601611c19565b9150509250929050565b600080fd5b600080fd5b7f4e487b7100000000000000000000000000000000000000000000000000000000600052604160045260246000fd5b611cb0826119c1565b810181811067ffffffffffffffff82111715611ccf57611cce611c78565b5b80604052505050565b6000611ce26118ac565b9050611cee8282611ca7565b919050565b600067ffffffffffffffff821115611d0e57611d0d611c78565b5b611d17826119c1565b9050602081019050919050565b82818337600083830152505050565b6000611d46611d4184611cf3565b611cd8565b905082815260208101848484011115611d6257611d61611c73565b5b611d6d848285611d24565b509392505050565b600082601f830112611d8a57611d89611c6e565b5b8135611d9a848260208601611d33565b91505092915050565b60008060008060808587031215611dbd57611dbc6118b6565b5b6000611dcb87828801611b03565b9450506020611ddc87828801611b03565b9350506040611ded87828801611a4e565b925050606085013567ffffffffffffffff811115611e0e57611e0d6118bb565b5b611e1a87828801611d75565b91505092959194509250565b600067ffffffffffffffff821115611e4157611e40611c78565b5b611e4a826119c1565b9050602081019050919050565b6000611e6a611e6584611e26565b611cd8565b905082815260208101848484011115611e8657611e85611c73565b5b611e91848285611d24565b509392505050565b600082601f830112611eae57611ead611c6e565b5b8135611ebe848260208601611e57565b91505092915050565b60008060408385031215611ede57611edd6118b6565b5b6000611eec85828601611b03565b925050602083013567ffffffffffffffff811115611f0d57611f0c6118bb565b5b611f1985828601611e99565b9150509250929050565b60008060408385031215611f3a57611f396118b6565b5b6000611f4885828601611b03565b9250506020611f5985828601611b03565b9150509250929050565b7f4e487b7100000000000000000000000000000000000000000000000000000000600052602260045260246000fd5b60006002820490506001821680611faa57607f821691505b602082108103611fbd57611fbc611f63565b5b50919050565b7f4552433732313a20617070726f76616c20746f2063757272656e74206f776e6560008201527f7200000000000000000000000000000000000000000000000000000000000000602082015250565b600061201f602183611986565b915061202a82611fc3565b604082019050919050565b6000602082019050818103600083015261204e81612012565b9050919050565b7f4552433732313a20617070726f76652063616c6c6572206973206e6f7420746f60008201527f6b656e206f776e6572206f7220617070726f76656420666f7220616c6c000000602082015250565b60006120b1603d83611986565b91506120bc82612055565b604082019050919050565b600060208201905081810360008301526120e0816120a4565b9050919050565b7f4552433732313a2063616c6c6572206973206e6f7420746f6b656e206f776e6560008201527f72206f7220617070726f76656400000000000000000000000000000000000000602082015250565b6000612143602d83611986565b915061214e826120e7565b604082019050919050565b6000602082019050818103600083015261217281612136565b9050919050565b7f4552433732313a20696e76616c696420746f6b656e2049440000000000000000600082015250565b60006121af601883611986565b91506121ba82612179565b602082019050919050565b600060208201905081810360008301526121de816121a2565b9050919050565b7f4552433732313a2061646472657373207a65726f206973206e6f74206120766160008201527f6c6964206f776e65720000000000000000000000000000000000000000000000602082015250565b6000612241602983611986565b915061224c826121e5565b604082019050919050565b6000602082019050818103600083015261227081612234565b9050919050565b600081905092915050565b600061228d8261197b565b6122978185612277565b93506122a7818560208601611997565b80840191505092915050565b60006122bf8285612282565b91506122cb8284612282565b91508190509392505050565b7f4e487b7100000000000000000000000000000000000000000000000000000000600052601160045260246000fd5b600061231182611a2d565b91507fffffffffffffffffffffffffffffffffffffffffffffffffffffffffffffffff8203612343576123426122d7565b5b600182019050919050565b7f4552433732313a207472616e736665722066726f6d20696e636f72726563742060008201527f6f776e6572000000000000000000000000000000000000000000000000000000602082015250565b60006123aa602583611986565b91506123b58261234e565b604082019050919050565b600060208201905081810360008301526123d98161239d565b9050919050565b7f4552433732313a207472616e7366657220746f20746865207a65726f2061646460008201527f7265737300000000000000000000000000000000000000000000000000000000602082015250565b600061243c602483611986565b9150612447826123e0565b604082019050919050565b6000602082019050818103600083015261246b8161242f565b9050919050565b7f4552433732313a20617070726f766520746f2063616c6c657200000000000000600082015250565b60006124a8601983611986565b91506124b382612472565b602082019050919050565b600060208201905081810360008301526124d78161249b565b9050919050565b7f4552433732313a207472616e7366657220746f206e6f6e20455243373231526560008201527f63656976657220696d706c656d656e7465720000000000000000000000000000602082015250565b600061253a603283611986565b9150612545826124de565b604082019050919050565b600060208201905081810360008301526125698161252d565b9050919050565b7f4552433732313a206d696e7420746f20746865207a65726f2061646472657373600082015250565b60006125a6602083611986565b91506125b182612570565b602082019050919050565b600060208201905081810360008301526125d581612599565b9050919050565b7f4552433732313a20746f6b656e20616c7265616479206d696e74656400000000600082015250565b6000612612601c83611986565b915061261d826125dc565b602082019050919050565b6000602082019050818103600083015261264181612605565b9050919050565b7f45524337323155524953746f726167653a2055524920736574206f66206e6f6e60008201527f6578697374656e7420746f6b656e000000000000000000000000000000000000602082015250565b60006126a4602e83611986565b91506126af82612648565b604082019050919050565b600060208201905081810360008301526126d381612697565b9050919050565b60008190508160005260206000209050919050565b60006020601f8301049050919050565b600082821b905092915050565b60006008830261273c7fffffffffffffffffffffffffffffffffffffffffffffffffffffffffffffffff826126ff565b61274686836126ff565b95508019841693508086168417925050509392505050565b6000819050919050565b600061278361277e61277984611a2d565b61275e565b611a2d565b9050919050565b6000819050919050565b61279d83612768565b6127b16127a98261278a565b84845461270c565b825550505050565b600090565b6127c66127b9565b6127d1818484612794565b505050565b5b818110156127f5576127ea6000826127be565b6001810190506127d7565b5050565b601f82111561283a5761280b816126da565b612814846126ef565b81016020851015612823578190505b61283761282f856126ef565b8301826127d6565b50505b505050565b600082821c905092915050565b600061285d6000198460080261283f565b1980831691505092915050565b6000612876838361284c565b9150826002028217905092915050565b61288f8261197b565b67ffffffffffffffff8111156128a8576128a7611c78565b5b6128b28254611f92565b6128bd8282856127f9565b600060209050601f8311600181146128f057600084156128de578287015190505b6128e8858261286a565b865550612950565b601f1984166128fe866126da565b60005b8281101561292657848901518255600182019150602085019450602081019050612901565b86831015612943578489015161293f601f89168261284c565b8355505b6001600288020188555050505b505050505050565b600081519050919050565b600082825260208201905092915050565b600061297f82612958565b6129898185612963565b9350612999818560208601611997565b6129a2816119c1565b840191505092915050565b60006080820190506129c26000830187611ac2565b6129cf6020830186611ac2565b6129dc6040830185611bd8565b81810360608301526129ee8184612974565b905095945050505050565b600081519050612a08816118ec565b92915050565b600060208284031215612a2457612a236118b6565b5b6000612a32848285016129f9565b91505092915050565b7f4e487b7100000000000000000000000000000000000000000000000000000000600052601260045260246000fdfea2646970667358221220dffe4a6168f34526537088d668fc7b508a95461ef982c06ac21aa8e962b4f8ce64736f6c63430008120033",
  "linkReferences": {},
  "deployedLinkReferences": {}
}